S01700004763634170706C69636174696F6E332E7372656359
S1130000C6C00000D5C00000D3C00000D1C00000AD
S1130010CFC00000CDC00000CBC00000C9C00000AC
S1130020C7C00000C5C00000C3C00000C1C00000BC
S1130030BFC00000BDC00000BBC00000B9C00000CC
S1130040B7C00000B5C00000B3C00000B1C00000DC
S1130050AFC00000ADC00000ABC00000A9C00000EC
S1130060A7C00000A5C00000A3C00000A1C00000FC
S11300709FC000009DC000009BC0000099C000000C
S113008097C0000095C0000093C000006E616E0030
S1130090696E660000407A10F35A00A0724E180987
S11300A00010A5D4E80000E87648170000E40B54DB
S11300B0020000CA9A3B000000E1F50500008096AA
S11300C09800000040420F000000A08601000000DC
S11300D0102700000000E803000000006400000096
S11300E000000A00000000000100000000002C765F
S11300F0D888DC674F0823DFC1DFAE59E1B1B7967A
S1130100E5E3E453C63AE651997696E8E6C28426D6
S1130110EB898C9B62ED407C6FFCEFBC9C9F40F2B2
S1130120BAA56FA5F490055A2AF75C936B6CF9672E
S11301306DC11BFCE0E40D47FEF520E6B500D0EDF3
S1130140902E0300943577050080841E080000205B
S11301504E0A000000C80C333333330F986E1283F9
S11301601141EF8D2114893BE65516CFFEE6DB18CD
S1130170D1844B381BF77C1D901DA4BBE424203292
S113018084725E228100C9F124ECA1E53D2711248B
S11301901FBECFEFD0E1DEBFCDBF21E0A0E0B1E0D4
S11301A001C01D92A131B207E1F73CD10C94DC09E6
S11301B027CF86B1836086B987B1806487B986B159
S11301C0806886B9089597B1907F97B997B1892BC4
S11301D087B986B1806486B93699FECF84B195B16A
S11301E0089580910F0190E0089580910D0190E0B1
S11301F008954F925F926F927F92AF92BF92CF9287
S1130200DF92EF92FF920F931F93CF93DF93CDB7BB
S1130210DEB729013A019B01AC01241935094609CD
S1130220570989899A89AB89BC89BC01CD016A19AE
S11302307B098C099D0996D6A801970124193509D3
S1130240460957099ED6C601B501620F731F841F64
S1130250951FDF91CF911F910F91FF90EF90DF9049
S1130260CF90BF90AF907F906F905F904F90089524
S11302708EB58A618EBD8FB582628FBD80E49CE9A4
S113028097BD86BDEBE8F0E080818160808380814A
S113029080688083AAE8B0E08C9189608C93808127
S11302A0806280830895EF92FF920F931F93CF9300
S11302B0DF93CDB7DEB760970FB6F894DEBF0FBEFD
S11302C0CDBF8B017A01829B0CC090E295BBEFE815
S11302D0F1E03197F1F700C00000EE24E394F12C33
S11302E00DC0849B0BC015BA20ED37E03BBD2ABD81
S11302F020EA3FE039BD28BDE12CF12C813081F5A5
S1130300C80134D2EA94EF2899F40DC0F801E80F3B
S1130310F91F2081E1E0F0E0EC0FFD1FE80FF91F69
S11303202083019602C080E090E08131910574F34E
S1130330BE016F5F7F4FC8015ED7892B89F480EAC5
S11303409FE09BBD8ABD80ED97E099BD88BD2FEFEE
S113035082E597E0215080409040E1F700C0000022
S113036060960FB6F894DEBF0FBECDBFDF91CF917C
S11303701F910F91FF90EF9008958734910524F019
S11303808BB380628BBB08958BB38F7B8BBB08953B
S1130390C39724F08BB388608BBB08958BB38BBB5E
S11303A00895AF92BF92CF92DF92EF92FF920F9394
S11303B01F93BC01990F880B990B1F921F921F92D8
S11303C02FEF2F93A12CB12C6501E12CF12C870187
S11303D02FEF33E040E050E00CDF0F900F900F90D0
S11303E00F9070930B0160930A01709387006093E0
S11303F0860080910A0190910B019093850080936F
S113040084001F910F91FF90EF90DF90CF90BF90E9
S1130410AF9008954AE060E071E001D780E091E098
S113042006C20895CF93DF93CDB7DEB760970FB6BA
S1130430F894DEBF0FBECDBFD3D159D0DDD1B9DE24
S113044017DF82E041D0682F606282E02CD083E025
S11304503BD0682F606883E026D0C3DE8C01C5DE04
S11304607C01C8018ADF80E090E0ADDE91DF81E0AD
S113047090E0A9DE96DF82E090E0A5DE83E7D0D1AC
S1130480C801C8DF83E6CCD1C701C4DF8AE0C8D184
S1130490BE016F5F7F4F82E536D1698970E041E02C
S11304A050E001DFDACFCF93C62F98B39E7F98BB7D
S11304B090E0880F991F8E779AD18C2F98D188B3AA
S11304C0816088BBCF91089598B39E7F98BB90E0DC
S11304D0880F991F8E7780688AD180E088D198B37D
S11304E0916098BB08956FE081E0DDCF0895FBDF54
S11304F06DE88AE2D8DF6EE38BE2D5DF6EE18CE251
S1130500D2DF60E08DE2CFDF60E485E1CCDF6DE334
S113051081E1C9DF84E1D8DF982F937021F4682F3B
S1130520636084E1C0CF08954F925F926F927F928F
S11305308F929F92AF92BF92CF92DF92EF92FF92EF
S11305400F931F93CF93DF93D82F7B01C42F5901AF
S11305508C3029F08E3061F0912C812C10C00F2E3C
S1130560F0E39F2EF02D0F2EF7E78F2EF02D07C00E
S11305706894992494F80F2EF2E18F2EF02D84E0E4
S1130580A3DF682F6F7784E08EDF8AE09DDF682F1A
S113059060688AE088DF60E081E085DF412C512CCF
S11305A032010BC0F701E40DF51D608189E07BDFAA
S11305B08FEF481A580A680A780A8C2F90E0A0E056
S11305C0B0E0481659066A067B0660F36D2F81E099
S11305D06ADFDC3031F48DE077DF682F60688DE00E
S11305E062DF0F2EF0EDCF2EF7E0DF2EE12CF12CA1
S11305F0F02D84E069DFC82FE1E0CE1AD108E108CC
S1130600F10829F080FD03C0892D8C2391F38DE03E
S11306105BDF682F6F778DE046DFCD28CE28CF28AB
S113062009F45CC086E050DF8B7109F059C0C82121
S1130630C0FD02C0C1E001C0C2E0DC3009F051C01D
S11306408AE042DFD82F8CE03FDF282F2770A9F003
S11306508D2F90E00197880F991F880F991F880F9D
S1130660991F820F911D092E000CAA0BBB0BF801D8
S113067080839183A283B38311C08D2F90E0880F70
S1130680991F880F991F880F991F092E000CAA0B18
S1130690BB0BF80180839183A283B383D11101C082
S11306A0D1E0D13108F0D0E1C12CD12C76010CC0BD
S11306B085010C0D1D1D89E007DFF8018083FFEF24
S11306C0CF1ADF0AEF0AFF0A8D2F90E0A0E0B0E016
S11306D0C816D906EA06FB0658F303C0C3E001C0F6
S11306E0C3E08C2FDF91CF911F910F91FF90EF907A
S11306F0DF90CF90BF90AF909F908F907F906F903E
S11307005F904F900895EF92FF920F931F93CF93B2
S1130710DF9300D000D0CDB7DEB7182F7B0167E0A0
S11307208DE0C1DEF70110838E010F5F1F4F97012B
S113073041E0B7018CE0F8DE813051F449815A81FF
S11307406B817C81403151056105710519F403C049
S113075083E001C083E00F900F900F900F90DF9122
S1130760CF911F910F91FF90EF900895EF92FF9218
S11307700F931F93CF93DF9300D000D0CDB7DEB794
S11307807C0160E08DE08FDE83E9F701808380E205
S113079081838E010F5F1F4F970142E0B7018CE008
S11307A0C3DE813091F407C0F701E90FF11D3081F8
S11307B023279F5F02C020E090E09430A8F3F70164
S11307C0E90FF11D9081291383E00F900F900F9092
S11307D00F90DF91CF911F910F91FF90EF900895AB
S11307E087B3836187BB8DB181658DB908958FB956
S11307F0779BFECF8FB108951092980087E680937F
S11308009900EDE9F0E08081866080838081877FB4
S1130810808380818F7C808388E180939A0008950F
S113082090919B0095FFFCCF80939C0008950F93BB
S11308301F93CF938C01C0E002C0F2DFCF5FF801B9
S1130840EC0FF11D80818111F8CFCF911F910F9191
S113085008952F923F924F925F926F927F928F9260
S11308609F92AF92BF92CF92DF92EF92FF920F933B
S11308701F93CF93DF93CDB7DEB760970FB6F8948D
S1130880DEBF0FBECDBF7C011B016A01FC011782D4
S11308901682838181FF2AC39E012F5F3F4F390156
S11308A0F7019381F10193FD859193FF81911F01DC
S11308B0882309F417C3853239F493FD859193FF96
S11308C081911F01853231F4B70190E0CBD45601F8
S11308D06501E6CF10E0512C912CFFE1F915D8F019
S11308E08B3279F038F4803279F08332A1F4F92D27
S11308F0F0612EC08D3261F0803369F4292D2160BE
S11309002DC0392D3260932E892D8460982E2AC0F3
S1130910E92DE86015C097FC2DC020ED280F2A3082
S113092088F496FE06C03AE0139F200D1124122F7E
S113093019C08AE0589E200D1124522EE92DE06240
S11309409E2E10C08E3231F496FCCCC2F92DF06488
S11309509F2E08C08C3621F4292D2068922E02C0C7
S1130960883641F4F10193FD859193FF81911F0134
S11309708111B3CF9BEB980F933020F4992D9061A4
S1130980805E07C09BE9980F933008F059C1992DF8
S11309909F7E96FF16E09F73992E853619F4906416
S11309A0992E08C0863621F4392F3068932E02C060
S11309B01111115097FE07C01C3350F44424439482
S11309C0410E27E00BC0183038F027E017E005C0CF
S11309D027E09CE3492E02C0212F412C560184E0DC
S11309E0A80EB11CF6016081718182819381042D6E
S11309F0A3011ED36C01F981FC87F0FF02C0F3FF51
S1130A0006C091FC06C092FE06C000E205C00DE2DD
S1130A1003C00BE201C000E08C858C7019F0011159
S1130A2043C280C297FE10C04C0CFC85F4FF04C086
S1130A308A81813309F44A94141474F528E0241546
S1130A4078F588E0482E2CC096FC2AC0812F90E0CF
S1130A508C159D059CF03CEFC3163FEFD30674F054
S1130A60892D8068982E0AC0E2E0F0E0EC0FFD1FAB
S1130A70E10FF11D8081803319F411501111F4CF6D
S1130A8097FE0EC044244394410E812F90E0C81673
S1130A90D9062CF41C1904C04424439401C010E06A
S1130AA097FE06C01C141D0434F4C601019605C04B
S1130AB085E090E002C081E090E0011101961123ED
S1130AC031F0212F30E02F5F3F4F820F931F252DF0
S1130AD030E08217930714F4581A01C0512C892D61
S1130AE0897041F4552031F0B70180E290E0BAD327
S1130AF05A94F8CF002321F0B701802F90E0B2D3AD
S1130B0093FC08C0552031F0B70180E390E0AAD3EC
S1130B105A94F8CF97FE4AC04601D7FE02C0812CF2
S1130B20912CC60188199909F301E80FF91FFE8772
S1130B30ED87960124193109388B2F87012F10E096
S1130B401195019511093FEF8316930621F4B7011E
S1130B508EE290E087D3C814D9044CF08F8598892D
S1130B608815990524F4ED85FE85818101C080E313
S1130B70F1E08F1A91082D853E852F5F3F4F3E8708
S1130B802D878016910624F0B70190E06BD3DBCF5C
S1130B90C814D90441F49A81963320F4953319F496
S1130BA03C8534FF81E3B70190E048C08A818133FA
S1130BB019F09C859F7E9C87B70190E053D3111157
S1130BC005C094FC16C085E690E015C0B7018EE21E
S1130BD090E048D31E5F82E001E0080FF301E80FC4
S1130BE0F11D8081B70190E03DD3802F0113F4CF34
S1130BF0E8CF85E490E0B70135D3D7FC06C0C11433
S1130C00D10441F4EC85E4FF05C0D194C194D1082A
S1130C108DE201C08BE2B70190E024D380E32AE0A7
S1130C20C216D1042CF08F5FFAE0CF1AD108F7CFA7
S1130C30B70190E017D3B701C601C09613D349C1D9
S1130C40833631F0833779F0833509F052C01FC001
S1130C50560132E0A30EB11CF6018081898301E0C4
S1130C6010E0630111C05601F2E0AF0EB11CF601B1
S1130C70C080D18096FE03C0612F70E002C06FEF88
S1130C807FEFC601C1D28C01F92DFF7713C0560145
S1130C9022E0A20EB11CF601C080D18096FE03C0F2
S1130CA0612F70E002C06FEF7FEFC60199D28C0113
S1130CB0F92DF0689F2EF3FD18C0852D90E00817DC
S1130CC0190798F4B70180E290E0CCD25A94F5CF9A
S1130CD0F60197FC859197FE81916F01B70190E031
S1130CE0C1D251105A94015011090115110581F70F
S1130CF0F0C0843611F0893659F5560197FE09C0C3
S1130D0024E0A20EB11CF60160817181828193817D
S1130D100AC0F2E0AF0EB11CF60160817181072EAA
S1130D20000C880B990BF92DFF769F2E97FF09C0B5
S1130D3090958095709561957F4F8F4F9F4FF06888
S1130D409F2E2AE030E0A301C9D2C82EC6183EC0A7
S1130D50092D853721F40F7E2AE030E01DC0097F7C
S1130D608F3691F018F4883559F0BCC0803719F0EB
S1130D70883711F0B7C0006104FF09C0046007C0E0
S1130D8094FE08C0066006C028E030E005C020E1FB
S1130D9030E002C020E132E0560107FF09C084E0E0
S1130DA0A80EB11CF601608171818281938108C013
S1130DB0F2E0AF0EB11CF6016081718180E090E039
S1130DC0A3018CD2C82EC6180F77902E96FE0BC0A6
S1130DD0092D0E7FC11650F494FE0AC092FC08C07F
S1130DE0092D0E7E05C0DC2C092D03C0DC2C01C0AE
S1130DF0D12E04FF0DC0FE01EC0DF11D8081803366
S1130E0011F4097E09C002FF06C0D394D39404C030
S1130E10802F867809F0D39403FD10C000FF06C02C
S1130E201C2DD51478F4150D1D190CC0D51450F4CF
S1130E30B70180E290E016D2D394F8CFD51410F421
S1130E405D1801C0512C04FF0FC0B70180E390E08E
S1130E5009D202FF16C001FD03C088E790E002C07A
S1130E6088E590E0B7010CC0802F867851F001FF2F
S1130E7002C08BE201C080E207FD8DE2B70190E081
S1130E80F1D1C11630F4B70180E390E0EBD11150F9
S1130E90F8CFCA94F301EC0DF11D8081B70190E005
S1130EA0E1D1C110F6CF15C0F4E0F51550F584E09A
S1130EB0581A93FE1EC0011125C02C8523FF27C09C
S1130EC00CE810E0392D3071932EF80184918111D2
S1130ED021C0552009F4FCCCB70180E290E0C2D1D6
S1130EE05A94F7CFF7018681978123C08FEF9FEF44
S1130EF020C0B70180E290E0B5D15A945110F9CFE7
S1130F00DACF512CB701802F90E0ACD1D6CF00E9D5
S1130F1010E0D8CF91108052B70190E0A3D10F5FB9
S1130F201F4FD3CF23E0251510F483E0C1CF512CFC
S1130F30C4CF60960FB6F894DEBF0FBECDBFDF916D
S1130F40CF911F910F91FF90EF90DF90CF90BF90C2
S1130F50AF909F908F907F906F905F904F903F9055
S1130F602F900895DB018F939F9327D0BF91AF916A
S1130F70A29F800D911DA39F900DB29F900D1124EF
S1130F800895052E97FB16F400940FD057FD05D055
S1130F901ED007FC02D046F408C050954095309509
S1130FA021953F4F4F4F5F4F0895909580957095D1
S1130FB061957F4F8F4F9F4F08952BD0A59F900D24
S1130FC0B49F900DA49F800D911D11240895A1E25A
S1130FD01A2EAA1BBB1BFD010DC0AA1FBB1FEE1FAF
S1130FE0FF1FA217B307E407F50720F0A21BB30BFA
S1130FF0E40BF50B661F771F881F991F1A9469F776
S113100060957095809590959B01AC01BD01CF01D1
S11310100895A29FB001B39FC001A39F700D811DCD
S11310201124911DB29F700D811D1124911D0895ED
S1131030283008F027E03327DA01990F311D87FDA6
S1131040916000966105710539F432602E5F3D931D
S113105030E32A95E1F708959F3F30F08038710519
S1131060610509F03C5F3C5F3D93913008F0806876
S1131070911DDF93CF931F930F93FF92EF92192F3C
S1131080987F9695E92F96959695E90FFF27E2515B
S1131090FF4F99273327EE24FF24A701E70105908A
S11310A00894079428F4360FE71EF81E491F511DB3
S11310B0660F771F881F991F0694A1F70590079460
S11310C028F4E70EF81E491F561FC11D770F881F0D
S11310D0991F661F0694A1F70590079428F4F80E4B
S11310E0491F561FC71FD11D880F991F661F771FE1
S11310F00694A1F70590079420F4490F561FC71FC3
S1131100D81F990F661F771F881F0694A9F784912B
S11311101095177041F0D695C79557954795F79454
S1131120E7941A95C1F7E4E9F0E0689415901591F5
S113113035916591959105907FE27395E118F10AD7
S1131140430B560BC90BD009C0F7E10CF11E431F2A
S1131150561FC91FD01D7EF4703311F48A95E6CF53
S1131160E894015030F0080F0AF40027021708F43D
S1131170202F2395022F7A3328F079E37D932A9543
S1131180E9F710C07D932A9589F60694979567959B
S1131190379517951794E118F10A430B560BC90BB1
S11311A0D00998F023957E9173957A3308F070E313
S11311B07C932013B8F77E9170617D9330F0839512
S11311C071E37D9370E32A95E1F71124EF90FF908A
S11311D00F911F91CF91DF91992787FD90950895E5
S11311E0FC010590615070400110D8F780959095EE
S11311F08E0F9F1F0895FB01DC018D9101908019D2
S11312000110D9F3990B0895FC01615070400190CD
S11312100110D8F7809590958E0F9F1F0895BB27D6
S11312204A3031F4992322F4BDE2909581959F4F81
S113123001C0BB27FB015527AA27880F991FAA1FA6
S1131240A41710F0A41B83955051B9F7A05DAA33DD
S113125008F0A95DA193009779F7B111B1931192A8
S1131260CB019AC00F931F93CF93DF93FB0123818C
S113127021FD03C08FEF9FEF2CC022FF16C04681D3
S11312805781248135814217530744F4A081B181E9
S11312909D012F5F3F4F318320838C9326813781BB
S11312A02F5F3F4F3783268314C08B01EC01FB0172
S11312B00084F185E02D0995892BE1F6D801169675
S11312C08D919C911797019617969C938E931697E0
S11312D0CE01DF91CF911F910F910895FA01AA27B2
S11312E0283051F1203181F1E8946F936E7F6E5F65
S11312F07F4F8F4F9F4FAF4FB1E03ED0B4E03CD013
S1131300670F781F891F9A1FA11D680F791F8A1FF5
S1131310911DA11D6A0F711D811D911DA11D20D05C
S113132009F468943F912AE0269F11243019305D16
S11313303193DEF6CF010895462F4770405D419307
S1131340B3E00FD0C9F7F6CF462F4F70405D4A3354
S113135018F0495D31FD4052419302D0A9F7EACF1C
S1131360B4E0A6959795879577956795BA95C9F74B
S113137000976105710508959B01AC010A2E06943E
S11313805795479537952795BA95C9F7620F731FF7
S1131390841F951FA01D0895DC01FC01672F719126
S11313A07723E1F7329704C07C916D937083629147
S10F13B0AE17BF07C8F30895F894FFCFF0
S9030000FC
