:10000000C6C00000E2C00000E0C00000DEC000008A
:10001000DCC00000DAC00000D8C00000D6C000007C
:10002000D4C00000D2C00000D0C00000CEC000008C
:10003000CCC00000CAC00000C8C00000C6C000009C
:10004000C4C00000C2C00000C0C00000BEC00000AC
:10005000BCC00000BAC00000B8C00000B6C00000BC
:10006000B4C00000B2C00000B0C00000AEC00000CC
:10007000ACC00000AAC00000A8C00000A6C00000DC
:10008000A4C00000A2C00000A0C000006E616E000D
:10009000696E660000407A10F35A00A0724E18098B
:1000A0000010A5D4E80000E87648170000E40B54DF
:1000B000020000CA9A3B000000E1F50500008096AE
:1000C0009800000040420F000000A08601000000E0
:1000D000102700000000E80300000000640000009A
:1000E00000000A00000000000100000000002C7663
:1000F000D888DC674F0823DFC1DFAE59E1B1B7967E
:10010000E5E3E453C63AE651997696E8E6C28426DA
:10011000EB898C9B62ED407C6FFCEFBC9C9F40F2B6
:10012000BAA56FA5F490055A2AF75C936B6CF96732
:100130006DC11BFCE0E40D47FEF520E6B500D0EDF7
:10014000902E0300943577050080841E080000205F
:100150004E0A000000C80C333333330F986E1283FD
:100160001141EF8D2114893BE65516CFFEE6DB18D1
:10017000D1844B381BF77C1D901DA4BBE424203296
:1001800084725E228100C9F124ECA1E53D2711248F
:100190001FBECFEFD0E1DEBFCDBF11E0A0E0B1E0E8
:1001A000E2E0FAE100E00BBF02C007900D92A6303A
:1001B000B107D9F721E0A6E0B1E001C01D92AF334D
:1001C000B207E1F7F4D00C94FF0C1ACF86B1876028
:1001D00086B986B1806886B9089597B1907F97B93E
:1001E00097B1892B87B986B1806486B93699FECFDD
:1001F00084B195B10895E1E6F0E080818068808364
:10020000E2E6F0E080818F7780832FEF89EF90E046
:10021000215080409040E1F700C00000808180685C
:1002200080830895E1E6F0E080818F77808380ED20
:100230008A95F1F707990FC08FE391E00197F1F7E5
:1002400000C00000079B07C08FE391E00197F1F722
:1002500000C00000089581E090E0089580E090E003
:1002600018C0079BFECF20EA2A95F1F7079B09C02B
:100270002091060130E0220F331F216020930601F8
:1002800005C020910601220F209306010799FECF99
:100290000196883091052CF3809106010895ABDF1B
:1002A000C1DF019779F0DADF80933C01D7DF8093DB
:1002B0003D01D4DF80933E01D1DF80933B01CEDF4F
:1002C00080933A010895EBDF80913C0190E008951E
:1002D000E6DF80913E0190E008954F925F926F9229
:1002E0007F92AF92BF92CF92DF92EF92FF920F93E5
:1002F0001F93CF93DF93CDB7DEB729013A019B015E
:10030000AC01241935094609570989899A89AB89AD
:10031000BC89BC01CD016A197B098C099D090E9429
:10032000D40AA801970124193509460957090E94E2
:10033000E30AC601B501620F731F841F951FDF9189
:10034000CF911F910F91FF90EF90DF90CF90BF90D2
:10035000AF907F906F905F904F900895CF93DF9311
:10036000EC01DA0120E030E018C0FE01E20FF31FDB
:100370005081FB01E20FF31F9081591309C0E1E0A6
:10038000F0E0F0930801E09307012F5F3F4F05C0B5
:10039000109208011092070103C0A217B3072CF7AF
:1003A0008091070190910801DF91CF91089517D2B4
:1003B0009DD0B7D30BDF29D21ED282E084D0682F24
:1003C000606282E06FD083E07ED0682F606883E057
:1003D00069D08BB388608BBB2FEF89EF90E0215001
:1003E00080409040E1F700C0000088EE93E09BBDA4
:1003F0008ABD82E49EE099BD88BD2FEF87E99AE32C
:10040000215080409040E1F700C000008BB3877F0F
:100410008BBB612C712C57DFEC015ADF6C01CE01D4
:10042000E4D282E0DADE8C01EDD281E0D6DE7C011E
:10043000B30180E090E03ED426E636E646E65FE390
:10044000C7D44B015C01B70180E090E033D42DECC0
:100450003CEC4CEC5DE3BCD49B01AC01C501B401A8
:1004600099D3FCD34B015C013B01CB01DAD280E094
:10047000B4DE7C018DE269D3C40189D38FE265D3F8
:10048000C80185D38FE261D3C60181D38FE25DD3EA
:10049000CE017DD38FE259D3C70179D38FE555D3F0
:1004A000C9D1B9CFCF93C62F98B39E7F98BB90E0A8
:1004B000880F991F8E779AD18C2F98D188B381603D
:1004C00088BBCF91089598B39E7F98BB90E0880F2A
:1004D000991F8E7780688AD180E088D198B3916027
:1004E00098BB08956FE081E0DDCF0895FBDF6DE8F4
:1004F0008AE2D8DF6EE38BE2D5DF6EE18CE2D2DFF9
:1005000060E08DE2CFDF60E485E1CCDF6DE381E187
:10051000C9DF84E1D8DF982F937021F4682F6360DE
:1005200084E1C0CF08954F925F926F927F928F9235
:100530009F92AF92BF92CF92DF92EF92FF920F9372
:100540001F93CF93DF93D82F7B01C42F59018C3099
:1005500029F08E3061F0912C812C10C00F2EF0E329
:100560009F2EF02D0F2EF7E78F2EF02D07C06894E9
:10057000992494F80F2EF2E18F2EF02D84E0A3DF62
:10058000682F6F7784E08EDF8AE09DDF682F6068D8
:100590008AE088DF60E081E085DF412C512C320168
:1005A0000BC0F701E40DF51D608189E07BDF8FEF63
:1005B000481A580A680A780A8C2F90E0A0E0B0E048
:1005C000481659066A067B0660F36D2F81E06ADFE4
:1005D000DC3031F48DE077DF682F60688DE062DF1A
:1005E0000F2EF0EDCF2EF7E0DF2EE12CF12CF02DC9
:1005F00084E069DFC82FE1E0CE1AD108E108F108F4
:1006000029F080FD03C0892D8C2391F38DE05BDF01
:10061000682F6F778DE046DFCD28CE28CF2809F4EC
:100620005CC086E050DF8B7109F059C0C821C0FD65
:1006300002C0C1E001C0C2E0DC3009F051C08AE074
:1006400042DFD82F8CE03FDF282F2770A9F08D2FB5
:1006500090E00197880F991F880F991F880F991FA5
:10066000820F911D092E000CAA0BBB0BF801808391
:100670009183A283B38311C08D2F90E0880F991FBF
:10068000880F991F880F991F092E000CAA0BBB0B0E
:10069000F80180839183A283B383D11101C0D1E09B
:1006A000D13108F0D0E1C12CD12C76010CC08501EC
:1006B0000C0D1D1D89E007DFF8018083FFEFCF1AC5
:1006C000DF0AEF0AFF0A8D2F90E0A0E0B0E0C81625
:1006D000D906EA06FB0658F303C0C3E001C0C3E035
:1006E0008C2FDF91CF911F910F91FF90EF90DF90B2
:1006F000CF90BF90AF909F908F907F906F905F90C2
:100700004F900895EF92FF920F931F93CF93DF9333
:1007100000D000D0CDB7DEB7182F7B0167E08DE0A9
:10072000C1DEF70110838E010F5F1F4F970141E07B
:10073000B7018CE0F8DE813051F449815A816B8138
:100740007C81403151056105710519F403C083E0D6
:1007500001C083E00F900F900F900F90DF91CF9129
:100760001F910F91FF90EF900895EF92FF920F93DA
:100770001F93CF93DF9300D000D0CDB7DEB77C01BD
:1007800060E08DE08FDE83E9F701808380E2818382
:100790008E010F5F1F4F970142E0B7018CE0C3DE6F
:1007A000813091F407C0F701E90FF11D3081232753
:1007B0009F5F02C020E090E09430A8F3F701E90FBA
:1007C000F11D9081291383E00F900F900F900F90EF
:1007D000DF91CF911F910F91FF90EF90089587B314
:1007E000876087BB8DB181658DB908958FB9779B7F
:1007F000FECF8FB1089587B3806687BB82B18861D1
:1008000082B98AB388658ABB08958EB58A618EBD28
:100810008FB5826A8FBD80E49CE997BD86BDEBE809
:10082000F0E08081816A8083EAE8F0E080818B607B
:100830008083089589B3827090E09093050180933E
:10084000040160E271E082E55DDF209102013091F8
:100850000301232B61F02091040130910501232B2A
:1008600031F420911F0191E0922790931F01209174
:10087000040130910501309303012093020183307C
:1008800051F4809100019091010101969093010132
:100890008093000104C01092010110920001809128
:1008A000000190910101039754F083E080931E01B1
:1008B00083E090E0909301018093000103C081E008
:1008C00080931E0180911E018130D9F580E291E074
:1008D0004CDF80911F0181110BC018C0FC01E05E4C
:1008E000FE4F2081FC01E25FFE4F2083019602C093
:1008F00080E090E0803191058CF310921F018FE130
:100900009EE40197F1F700C000001FC045E050E0F1
:1009100060E271E08EE091E021DD892B39F081E029
:1009200090E090930D0180930C010FC080910C0119
:1009300090910D01019749F410920D0110920C0154
:1009400004C010920D0110920C0190910B01809146
:100950001E01981709F441C080910C0190910D017E
:100960000197F1F48BB388608BBB9FEF29EF80E098
:10097000915020408040E1F700C0000088EB9BE0F0
:100980009BBD8ABD86E495E099BD88BD9FEF27E9B0
:100990008AE3915020408040E1F700C000001DC074
:1009A0008BB388608BBB9FEF29EF80E09150204094
:1009B0008040E1F700C0000088EE93E09BBD8ABD57
:1009C00082E49EE099BD88BD9FEF27E98AE39150BC
:1009D00020408040E1F700C0000080911E0180931C
:1009E0000B018BB3877F8BBB08958D33910524F06A
:1009F0008BB380618BBB0895CA971CF48BB38F7E39
:100A00008BBB0895853A21E0920724F08BB3806474
:100A10008BBB0895823791401CF48BB38F7B8BBBCB
:100A20000895AF92BF92CF92DF92EF92FF920F9311
:100A30001F9399230CF40396959587959595879523
:100A40006FEF70E0681B790B6D3371052CF4109219
:100A50000A01109209014CC0CB01CD978E36910549
:100A600018F5072E000C880B990B1F921F921F92EE
:100A70002EE62F930F2EFCE3AF2EB12CC12CD12CE0
:100A8000F02D1AEAE12EF12C00E010E02CE330E02A
:100A900040E050E022DC70930A01609309010F905E
:100AA0000F900F900F9024C06B3A71050CF1072E38
:100AB000000C880B990B1F921F921F922FEF2F9300
:100AC0000F2EFEE6AF2EB12CC12CD12CF02DE12C37
:100AD000F12C8701EA942AEA30E040E050E0FDDBA7
:100AE00070930A01609309010F900F900F900F907F
:100AF0008091090190910A0190938700809386006C
:100B00008091090190910A0190938500809384005F
:100B10001F910F91FF90EF90DF90CF90BF90AF901B
:100B200008951092980087E680939900EDE9F0E02F
:100B30008081866080838081877F808380818F7CB5
:100B4000808388E180939A00089590919B0095FF9F
:100B5000FCCF80939C0008950F931F93CF938C013B
:100B6000C0E002C0F2DFCF5FF801EC0FF11D808121
:100B70008111F8CFCF911F910F9108954AE050E075
:100B800060E371E065D680E391E0E6CF0895F6CFAB
:100B900008955058BB27AA270ED0E0C0D1D030F01E
:100BA000D6D020F031F49F3F11F41EF4C6C00EF4ED
:100BB000E095E7FBBCC0E92FE2D080F3BA176207EB
:100BC00073078407950718F071F49EF5FAC00EF4C8
:100BD000E0950B2EBA2FA02D0B01B90190010C014D
:100BE000CA01A0011124FF27591B99F0593F50F465
:100BF000503E68F11A16F040A22F232F342F4427BD
:100C0000585FF3CF469537952795A795F0405395B4
:100C1000C9F77EF41F16BA0B620B730B840BBAF084
:100C20009150A1F0FF0FBB1F661F771F881FC2F7EF
:100C30000EC0BA0F621F731F841F48F48795779503
:100C40006795B795F7959E3F08F0B3CF9395880FBA
:100C500008F09927EE0F97958795089598D088F01A
:100C60009F5790F0B92F9927B751A0F0D1F0660F98
:100C7000771F881F991F1AF0BA95C9F712C0B130B3
:100C800081F09FD0B1E008959CC0672F782F88270E
:100C9000B85F39F0B93FCCF3869577956795B395F2
:100CA000D9F73EF490958095709561957F4F8F4F61
:100CB0009F4F0895E89409C097FB3EF49095809566
:100CC000709561957F4F8F4F9F4F9923A9F0F92F12
:100CD00096E9BB279395F695879577956795B79590
:100CE000F111F8CFFAF4BB0F11F460FF1BC06F5F76
:100CF0007F4F8F4F9F4F16C0882311F096E911C088
:100D0000772321F09EE8872F762F05C0662371F0A8
:100D100096E8862F70E060E02AF09A95660F771FBC
:100D2000881FDAF7880F9695879597F9089597F9B0
:100D30009F6780E870E060E008959FEF80EC089581
:100D400000240A94161617061806090608950024AA
:100D50000A9412161306140605060895092E039424
:100D6000000C11F4882352F0BB0F40F4BF2B11F498
:100D700060FF04C06F5F7F4F8F4F9F4F089557FDF7
:100D80009058440F551F59F05F3F71F04795880FF9
:100D900097FB991F61F09F3F79F087950895121690
:100DA00013061406551FF2CF4695F1DF08C016163C
:100DB00017061806991FF1CF8695710561050894ED
:100DC0000895E894BB2766277727CB0197F9089504
:100DD0000BD0C4CFB5DF28F0BADF18F0952309F0A7
:100DE000A6CFABCF1124EECFCADFA0F3959FD1F3EE
:100DF000950F50E0551F629FF001729FBB27F00DC9
:100E0000B11D639FAA27F00DB11DAA1F649F66271D
:100E1000B00DA11D661F829F2227B00DA11D621F6C
:100E2000739FB00DA11D621F839FA00D611D221F26
:100E3000749F3327A00D611D231F849F600D211D0A
:100E4000822F762F6A2F11249F5750408AF0E1F0AD
:100E500088234AF0EE0FFF1FBB1F661F771F881FF6
:100E600091505040A9F79E3F510570F060CFAACF36
:100E70005F3FECF3983EDCF3869577956795B795E1
:100E8000F795E7959F5FC1F7FE2B880F911D96950B
:100E9000879597F908952F923F924F925F926F92A4
:100EA0007F928F929F92AF92BF92CF92DF92EF92FA
:100EB000FF920F931F93CF93DF93CDB7DEB7609769
:100EC0000FB6F894DEBF0FBECDBF7C011B016A01D7
:100ED000FC0117821682838181FF2AC39E012F5F46
:100EE0003F4F3901F7019381F10193FD859193FF04
:100EF00081911F01882309F417C3853239F493FDCA
:100F0000859193FF81911F01853231F4B70190E003
:100F1000CCD456016501E6CF10E0512C912CFFE1B5
:100F2000F915D8F08B3279F038F4803279F08332C9
:100F3000A1F4F92DF0612EC08D3261F0803369F497
:100F4000292D21602DC0392D3260932E892D84608A
:100F5000982E2AC0E92DE86015C097FC2DC020ED21
:100F6000280F2A3088F496FE06C03AE0139F200D21
:100F70001124122F19C08AE0589E200D1124522EE0
:100F8000E92DE0629E2E10C08E3231F496FCCCC268
:100F9000F92DF0649F2E08C08C3621F4292D20688D
:100FA000922E02C0883641F4F10193FD859193FFA2
:100FB00081911F018111B3CF9BEB980F933020F4E7
:100FC000992D9061805E07C09BE9980F933008F0DF
:100FD00059C1992D9F7E96FF16E09F73992E8536F5
:100FE00019F49064992E08C0863621F4392F3068A0
:100FF000932E02C01111115097FE07C01C3350F4FC
:1010000044244394410E27E00BC0183038F027E009
:1010100017E005C027E09CE3492E02C0212F412C98
:10102000560184E0A80EB11CF601608171818281B5
:101030009381042DA3011ED36C01F981FC87F0FF7D
:1010400002C0F3FF06C091FC06C092FE06C000E29B
:1010500005C00DE203C00BE201C000E08C858C707E
:1010600019F0011143C280C297FE10C04C0CFC85E0
:10107000F4FF04C08A81813309F44A94141474F58E
:1010800028E0241578F588E0482E2CC096FC2AC06C
:10109000812F90E08C159D059CF03CEFC3163FEF2F
:1010A000D30674F0892D8068982E0AC0E2E0F0E043
:1010B000EC0FFD1FE10FF11D8081803319F41150F9
:1010C0001111F4CF97FE0EC044244394410E812F9A
:1010D00090E0C816D9062CF41C1904C0442443948B
:1010E00001C010E097FE06C01C141D0434F4C601B4
:1010F000019605C085E090E002C081E090E001111A
:101100000196112331F0212F30E02F5F3F4F820FE6
:10111000931F252D30E08217930714F4581A01C04D
:10112000512C892D897041F4552031F0B70180E2AE
:1011300090E0BBD35A94F8CF002321F0B701802F61
:1011400090E0B3D393FC08C0552031F0B70180E3A1
:1011500090E0ABD35A94F8CF97FE4AC04601D7FE31
:1011600002C0812C912CC60188199909F301E80F5E
:10117000F91FFE87ED87960124193109388B2F87D7
:10118000012F10E01195019511093FEF8316930689
:1011900021F4B7018EE290E088D3C814D9044CF052
:1011A0008F8598898815990524F4ED85FE858181C0
:1011B00001C080E3F1E08F1A91082D853E852F5FF5
:1011C0003F4F3E872D878016910624F0B70190E0AF
:1011D0006CD3DBCFC814D90441F49A81963320F440
:1011E000953319F43C8534FF81E3B70190E048C0A2
:1011F0008A81813319F09C859F7E9C87B70190E09E
:1012000054D3111105C094FC16C085E690E015C0BA
:10121000B7018EE290E049D31E5F82E001E0080F43
:10122000F301E80FF11D8081B70190E03ED3802FDC
:101230000113F4CFE8CF85E490E0B70136D3D7FCB3
:1012400006C0C114D10441F4EC85E4FF05C0D1947B
:10125000C194D1088DE201C08BE2B70190E025D3A3
:1012600080E32AE0C216D1042CF08F5FFAE0CF1A97
:10127000D108F7CFB70190E018D3B701C601C096E7
:1012800014D349C1833631F0833779F0833509F0BF
:1012900052C01FC0560132E0A30EB11CF60180817E
:1012A000898301E010E0630111C05601F2E0AF0E46
:1012B000B11CF601C080D18096FE03C0612F70E0A2
:1012C00002C06FEF7FEFC601B8D28C01F92DFF7716
:1012D00013C0560122E0A20EB11CF601C080D180DD
:1012E00096FE03C0612F70E002C06FEF7FEFC60172
:1012F00099D28C01F92DF0689F2EF3FD18C0852D31
:1013000090E00817190798F4B70180E290E0CDD279
:101310005A94F5CFF60197FC859197FE81916F0164
:10132000B70190E0C2D251105A9401501109011531
:10133000110581F7F0C0843611F0893659F5560150
:1013400097FE09C024E0A20EB11CF60160817181F4
:10135000828193810AC0F2E0AF0EB11CF601608178
:101360007181072E000C880B990BF92DFF769F2EAB
:1013700097FF09C090958095709561957F4F8F4F2D
:101380009F4FF0689F2E2AE030E0A301CAD2C82EFA
:10139000C6183EC0092D853721F40F7E2AE030E0C3
:1013A0001DC0097F8F3691F018F4883559F0BCC004
:1013B000803719F0883711F0B7C0006104FF09C009
:1013C000046007C094FE08C0066006C028E030E054
:1013D00005C020E130E002C020E132E0560107FF05
:1013E00009C084E0A80EB11CF60160817181828180
:1013F000938108C0F2E0AF0EB11CF60160817181EB
:1014000080E090E0A3018DD2C82EC6180F77902EF1
:1014100096FE0BC0092D0E7FC11650F494FE0AC033
:1014200092FC08C0092D0E7E05C0DC2C092D03C0DE
:10143000DC2C01C0D12E04FF0DC0FE01EC0DF11D0E
:101440008081803311F4097E09C002FF06C0D39465
:10145000D39404C0802F867809F0D39403FD10C084
:1014600000FF06C01C2DD51478F4150D1D190CC0F5
:10147000D51450F4B70180E290E017D2D394F8CF9E
:10148000D51410F45D1801C0512C04FF0FC0B70132
:1014900080E390E00AD202FF16C001FD03C088E796
:1014A00090E002C088E590E0B7010CC0802F8678FC
:1014B00051F001FF02C08BE201C080E207FD8DE226
:1014C000B70190E0F2D1C11630F4B70180E390E0AB
:1014D000ECD11150F8CFCA94F301EC0DF11D8081CD
:1014E000B70190E0E2D1C110F6CF15C0F4E0F515D8
:1014F00050F584E0581A93FE1EC0011125C02C85BA
:1015000023FF27C00CE810E0392D3071932EF8012D
:101510008491811121C0552009F4FCCCB70180E2EF
:1015200090E0C3D15A94F7CFF7018681978123C009
:101530008FEF9FEF20C0B70180E290E0B6D15A94C0
:101540005110F9CFDACF512CB701802F90E0ADD1F7
:10155000D6CF00E910E0D8CF91108052B70190E0CB
:10156000A4D10F5F1F4FD3CF23E0251510F483E0E4
:10157000C1CF512CC4CF60960FB6F894DEBF0FBE1A
:10158000CDBFDF91CF911F910F91FF90EF90DF9032
:10159000CF90BF90AF909F908F907F906F905F9013
:1015A0004F903F902F900895DB018F939F9327D00A
:1015B000BF91AF91A29F800D911DA39F900DB29FEF
:1015C000900D11240895052E97FB16F400940FD06A
:1015D00057FD05D01ED007FC02D046F408C0509538
:1015E0004095309521953F4F4F4F5F4F089590950F
:1015F0008095709561957F4F8F4F9F4F08952BD0A9
:10160000A59F900DB49F900DA49F800D911D112456
:101610000895A1E21A2EAA1BBB1BFD010DC0AA1F33
:10162000BB1FEE1FFF1FA217B307E407F50720F04B
:10163000A21BB30BE40BF50B661F771F881F991FC6
:101640001A9469F760957095809590959B01AC010F
:10165000BD01CF010895A29FB001B39FC001A39F18
:10166000700D811D1124911DB29F700D811D1124DB
:10167000911D0895283008F027E03327DA01990FEB
:10168000311D87FD916000966105710539F4326066
:101690002E5F3D9330E32A95E1F708959F3F30F0A8
:1016A00080387105610509F03C5F3C5F3D939130E6
:1016B00008F08068911DDF93CF931F930F93FF92E3
:1016C000EF92192F987F9695E92F96959695E90FA9
:1016D000FF27E251FF4F99273327EE24FF24A7016C
:1016E000E70105900894079428F4360FE71EF81ECA
:1016F000491F511D660F771F881F991F0694A1F778
:101700000590079428F4E70EF81E491F561FC11DC7
:10171000770F881F991F661F0694A1F705900794FD
:1017200028F4F80E491F561FC71FD11D880F991F97
:10173000661F771F0694A1F70590079420F4490FC0
:10174000561FC71FD81F990F661F771F881F069443
:10175000A9F784911095177041F0D695C7955795C4
:101760004795F794E7941A95C1F7E4E9F0E0689497
:101770001590159135916591959105907FE273953E
:10178000E118F10A430B560BC90BD009C0F7E10C65
:10179000F11E431F561FC91FD01D7EF4703311F474
:1017A0008A95E6CFE894015030F0080F0AF400273C
:1017B000021708F4202F2395022F7A3328F079E3BB
:1017C0007D932A95E9F710C07D932A9589F60694B2
:1017D00097956795379517951794E118F10A430B7C
:1017E000560BC90BD00998F023957E9173957A33E7
:1017F00008F070E37C932013B8F77E9170617D93BD
:1018000030F0839571E37D9370E32A95E1F711241D
:10181000EF90FF900F911F91CF91DF91992787FD56
:1018200090950895FC010590615070400110D8F723
:10183000809590958E0F9F1F0895FC016150704018
:1018400001900110D8F7809590958E0F9F1F0895F5
:101850004532510518F4423008F004C0FB011082F3
:10186000CB010895BB274A3031F4992322F4BDE21D
:10187000909581959F4F01C0BB27FB015527AA2753
:10188000880F991FAA1FA41710F0A41B839550510D
:10189000B9F7A05DAA3308F0A95DA193009779F785
:1018A000B111B1931192CB019AC00F931F93CF93B3
:1018B000DF93FB01238121FD03C08FEF9FEF2CC03D
:1018C00022FF16C046815781248135814217530774
:1018D00044F4A081B1819D012F5F3F4F318320836C
:1018E0008C93268137812F5F3F4F3783268314C027
:1018F0008B01EC01FB010084F185E02D0995892B1A
:10190000E1F6D80116968D919C911797019617963E
:101910009C938E931697CE01DF91CF911F910F91DB
:101920000895FA01AA27283051F1203181F1E89475
:101930006F936E7F6E5F7F4F8F4F9F4FAF4FB1E0C2
:101940003ED0B4E03CD0670F781F891F9A1FA11DBD
:10195000680F791F8A1F911DA11D6A0F711D811DBE
:10196000911DA11D20D009F468943F912AE0269F83
:1019700011243019305D3193DEF6CF010895462FE2
:101980004770405D4193B3E00FD0C9F7F6CF462FC3
:101990004F70405D4A3318F0495D31FD405241932C
:1019A00002D0A9F7EACFB4E0A695979587957795E9
:1019B0006795BA95C9F700976105710508959B0170
:1019C000AC010A2E06945795479537952795BA95F9
:1019D000C9F7620F731F841F951FA01D0895DC01B6
:1019E000FC01672F71917723E1F7329704C07C9156
:1019F0006D9370836291AE17BF07C8F30895F89492
:021A0000FFCF16
:061A0200030001000100D9
:00000001FF
